:0200000470008A
:10000000464346420004015600000000010303007D
:1000100000000000000000000000000000000000E0
:1000200000000000000000000000000000000000D0
:1000300000000000000000000000000000000000C0
:100040001000000001040700000000000000000094
:100050000000400000000000000000000000000060
:100060000000000000000000000000000000000090
:100070000000000000000000000000000000000080
:10008000EB04180A063204260000000000000000FD
:10009000050404240000000000000000000000002F
:1000A0000000000000000000000000000000000050
:1000B0000604000000000000000000000000000036
:1000C0000000000000000000000000000000000030
:1000D00020041808000000000000000000000000DC
:1000E0000000000000000000000000000000000010
:1000F0000000000000000000000000000000000000
:10010000D8041808000000000000000000000000F3
:100110000204180804200000000000000000000095
:1001200000000000000000000000000000000000CF
:10013000600400000000000000000000000000005B
:1001400000000000000000000000000000000000AF
:10015000000000000000000000000000000000009F
:10016000000000000000000000000000000000008F
:10017000000000000000000000000000000000007F
:10018000000000000000000000000000000000006F
:10019000000000000000000000000000000000005F
:1001A000000000000000000000000000000000004F
:1001B000000000000000000000000000000000003F
:1001C000000100000010000001000000000000001D
:1001D000000001000000000000000000000000001E
:1001E000000000000000000000000000000000000F
:1001F00000000000000000000000000000000000FF
:1002000000000000000000000000000000000000EE
:1002100000000000000000000000000000000000DE
:10100000D10020410020007000000000301000706E
:1010100020100070001000700000000000000000B0
:10102000000000700000400000000000FFFFFFFF14
:10103000D2041041CC038C04400FC068FFFFFFFFB7
:10104000400FC06CFFFFFFFF400FC070FFFFFFFFAE
:10105000400FC074FFFFFFFF400FC078FFFFFFFF8E
:10106000400FC07CFFFFFFFF400FC080FFFFFFFF6E
:10107000400D803000002001400D8100101D101B2C
:10108000400FC01400010D40401F801400000000FC
:10109000401F801800000000401F801C000000005E
:1010A000401F802000000000401F8024000000003E
:1010B000401F802800000000401F802C000000001E
:1010C000401F803000000000401F803400000000FE
:1010D000401F803800000000401F803C00000000DE
:1010E000401F804000000000401F804400000000BE
:1010F000401F804800000000401F804C000000009E
:10110000401F805000000000401F8054000000007D
:10111000401F805800000000401F805C000000005D
:10112000401F806000000000401F8064000000003D
:10113000401F806800000000401F806C000000001D
:10114000401F807000000000401F807400000000FD
:10115000401F807800000000401F807C00000000DD
:10116000401F808000000000401F808400000000BD
:10117000401F808800000000401F808C000000009D
:10118000401F809000000000401F8094000000007D
:10119000401F809800000000401F809C000000005D
:1011A000401F80A000000000401F80A4000000003D
:1011B000401F80A800000000401F80AC000000001D
:1011C000401F80B000000010401F8204000110F991
:1011D000401F8208000110F9401F820C000110F925
:1011E000401F8210000110F9401F8214000110F905
:1011F000401F8218000110F9401F821C000110F9E5
:10120000401F8220000110F9401F8224000110F9C4
:10121000401F8228000110F9401F822C000110F9A4
:10122000401F8230000110F9401F8234000110F984
:10123000401F8238000110F9401F823C000110F964
:10124000401F8240000110F9401F8244000110F944
:10125000401F8248000110F9401F824C000110F924
:10126000401F8250000110F9401F8254000110F904
:10127000401F8258000110F9401F825C000110F9E4
:10128000401F8260000110F9401F8264000110F9C4
:10129000401F8268000110F9401F826C000110F9A4
:1012A000401F8270000110F9401F8274000110F984
:1012B000401F8278000110F9401F827C000110F964
:1012C000401F8280000110F9401F8284000110F944
:1012D000401F8288000110F9401F828C000110F924
:1012E000401F8290000110F9401F8294000110F904
:1012F000401F8298000110F9401F829C000110F9E4
:10130000401F82A0000110F9402F000010000004CF
:10131000402F000800000081402F000C00000081D9
:10132000402F00108000001B402F00148200001B83
:10133000402F00188400001B402F001C8600001B5B
:10134000402F002090000021402F0024A000001911
:10135000402F0028A8000017402F002CA900001BD8
:10136000402F003000000021402F0004000079A829
:10137000402F004000000F31402F0044006529221B
:10138000402F004800010920402F004C50210A083E
:10139000402F008000000021402F008400888888B2
:1013A000402F009400000002402F00980000000031
:1013B000402F009080000000402F009CA55A000F95
:1013C000CF000C1C402F003C00000001CC00140496
:1013D000402F009080000000402F009CA55A000C78
:1013E000CF000C1C402F003C00000001CC00140476
:1013F000402F009080000000402F009CA55A000C58
:10140000CF000C1C402F003C00000001CC001C044D
:10141000402F00A000000033402F0090800000000B
:10142000402F009CA55A000ACF000C1C402F003C06
:1014300000000001CC000C04402F004C50210A0990
:10144000000000000000000000000000000000009C
:10145000000000000000000000000000000000008C
:10146000000000000000000000000000000000007C
:10147000000000000000000000000000000000006C
:102000000000072015240070996D0080114C00809D
:10201000916D0080F9140080799300800000000029
:10202000000000000000000000000000298900807E
:10203000313E008000000000017E0080912400708D
:1020400095240070992400709D240070A1240070D4
:10205000A5240070A9240070AD240070B124007084
:10206000B5240070B9240070BD240070C124007034
:10207000C5240070C9240070CD240070D1240070E4
:10208000D52400707D2400707D2400707D240070B4
:102090002162008079620080D16200802963008023
:1020A0009963008009640080F124007089640080D5
:1020B000F9240070FD2400700125007005250070D2
:1020C000092500700D250070112500701525007080
:1020D000192500701D2500707D2400707D2400707E
:1020E0007D2400707D2400707D24007019290080FB
:1020F0007D2400707D2400707D2400707D2400709C
:102100007D2400707D2400707D2400707D2400708B
:102110007D2400707D2400707D2400707D2400707B
:102120002125007025250070292500702D250070BF
:10213000312500707D2400707D2400707D240070A6
:102140007D2400707D2400707D2400707D2400704B
:102150007D2400707D2400707D2400707D2400703B
:102160007D2400707D2400707D2400707D2400702B
:102170007D2400707D2400707D2400707D2400701B
:10218000214400805144008091440080D14400806B
:10219000094500807D2400707D2400707D2400703E
:1021A0007D2400707D240070352500703925007075
:1021B0007D2400707D2400707D2400707D240070DB
:1021C0007D2400707D2400707D2400707D240070CB
:1021D0007D2400707D2400707D2400707D240070BB
:1021E0007D2400707D2400707D2400703D250070EA
:1021F000412500707D240070452500704925007040
:1022000011930080F99200804D25007051250070D7
:102210007D2400707D2400707D2400707D2400707A
:102220007D2400707D240070C16E00807D240070CC
:102230007D2400707D2400707D2400707D2400705A
:102240007D2400707D2400707D2400707D2400704A
:102250007D2400707D2400707D2400707D2400703A
:102260007D2400707D2400707D2400707D2400702A
:102270007D2400707D2400707D2400707D2400701A
:102280007D2400707D2400707D2400707D2400700A
:102290007D2400707D2400707D2400707D240070FA
:1022A00055250070592500705D2500707D24007053
:1022B000612500707D2400707D2400707D240070F5
:1022C0007D2400707D2400707D2400707D240070CA
:1022D0007D2400707D2400707D2400707D240070BA
:1022E0007D2400707D2400707D2400707D240070AA
:1022F0007D2400707D2400707D2400707D2400709A
:102300007D2400707D2400707D2400707D24007089
:102310007D2400707D2400707D2400707D24007079
:102320007D2400707D2400707D2400707D24007069
:102330007D2400707D2400707D2400707D24007059
:102340007D2400707D2400707D2400707D24007049
:102350007D2400707D2400707D2400707D24007039
:102360007D2400707D2400707D2400707D24007029
:102370007D2400707D2400707D2400707D24007019
:102380007D2400707D2400707D2400707D24007009
:102390007D2400707D2400707D2400707D240070F9
:1023A0007D2400707D2400707D2400707D240070E9
:1023B0007D2400707D2400707D2400707D240070D9
:1023C0007D2400707D2400707D2400707D240070C9
:1023D0007D2400707D2400707D2400707D240070B9
:1023E0007D2400707D2400707D2400707D240070A9
:1023F0007D2400707D2400707D240070FFFFFFFFAE
:10240000DFF80CD000F020F90048004731C300800D
:10241000000007201148124901601248016841F08C
:102420000401016010480168C0F200014FF007028A
:102430004FF00A034FEA02424FEA035342EA030114
:10244000016072B609480A4901600A6882F3088887
:102450000848804762B608480047000044C00A4068
:10246000AFAAAAAA40C00A4038C00A4008ED00E05E
:10247000002000707126007001240070FFF7FEBF7D
:102480003848004738480047384800473848004730
:102490003848004738480047384800473848004720
:1024A0003848004738480047384800473848004710
:1024B0003848004738480047384800473848004700
:1024C00038480047384800473848004738480047F0
:1024D00038480047384800473848004738480047E0
:1024E00038480047384800473848004738480047D0
:1024F00038480047384800473848004738480047C0
:1025000038480047384800473848004738480047AF
:10251000384800473848004738480047384800479F
:10252000384800473848004738480047384800478F
:10253000384800473848004738480047384800477F
:10254000384800473848004738480047384800476F
:10255000384800473848004738480047384800475F
:1025600038480047996D0080114C0080298900800F
:10257000017E00809124007041290080A92B0080F9
:10258000012C0080592C0080B12C0080092D008086
:10259000612D0080B92D0080112E0080692E0080F1
:1025A00099290080F1290080492A0080A12A008011
:1025B000F92A0080512B00807D240070F961008091
:1025C00051620080A9620080016300807163008015
:1025D000E16300803964008061640080394F0080CD
:1025E000494F0080614F0080794F0080115000807A
:1025F00059500080A1500080E950008001150080F2
:1026000051150080698600800187008099870080CD
:10261000E9870080A988008099430080A143008059
:102620007D2400707D2400702993008051930080E8
:1026300031420080F9400080E1400080C9400080C4
:10264000A1150080A9430080064C074D06E0E06814
:1026500040F0010394E8070098471034AC42F6D3E9
:10266000FFF7D2FE382800706828007000000000D4
:1026700080B584B04EF68851CEF20001086840F46F
:10268000700008604FF4806001904FF000400390AC
:1026900042F20000C7F2000002900198800800900A
:1026A000FFE70098411E009140B1FFE70298009AB1
:1026B00050F82200039941F82200F2E703984EF601
:1026C0000851CEF20001086048F20801C4F20B0183
:1026D000088820F0010008800821C4F20D01088854
:1026E00020F00100088048F20000C4F20B000088CE
:1026F0004007002809D5FFE748F20001C4F20B01AA
:10270000088820F004000880FFE70020C4F20D00D4
:1027100000884007002808D5FFE70021C4F20D011A
:10272000088820F004000880FFE74CF20000C4F2A3
:102730000B000068800400280AD5FFE74CF2040172
:10274000C4F20B014CF22050CDF6281008600AE0CC
:102750004CF20401C4F20B014CF2205008604DF61B
:1027600028100860FFE74CF20801C4F20B014FF695
:10277000FF7008604CF20001C4F20B01086840F0E1
:10278000200020F0800008604EF21000CEF2000021
:102790000068C00748B1FFE74EF21001CEF2000119
:1027A000086820F001000860FFE74EF61450CEF2F2
:1027B0000000006800F40030B0F5003F26D0FFE7CD
:1027C0004EF61450CEF2000000688003002801D5B8
:1027D000FFE71AE0BFF34F8FBFF36F8F4EF65071D4
:1027E000CEF2000100200860BFF34F8FBFF36F8F60
:1027F0004EF61451CEF20001086840F40030086033
:10280000BFF34F8FBFF36F8FFFE7FFE700F004F8D0
:1028100004B080BD00000000704702E008C8121F2D
:1028200008C1002AFAD170477047002001E001C1B9
:10283000121F002AFBD17047682800700004008036
:10284000042201001A280070704A01700000002064
:10285000380100004E0A0080104B01703801002042
:10286000981C00002A2800702DE9F05F0546002022
:1028700092469B4688460646814640241BE02846F1
:1028800041464746224600F0C8F853465A46C01A09
:10289000914110D311461846224600F0AFF82D1A88
:1028A00067EB01084F4622460120002100F0A6F800
:1028B00017EB00094E41201EA4F10104DFDC48465D
:1028C00031462A464346BDE8F09F2DE9F0410024F9
:1028D000061B254671F1000605DA01240027D0EB1E
:1028E000070067EB0101161E73F1000605DA0027E9
:1028F000D2EB0702012567EB0303FFF7B5FF86461E
:102900000E4617469C46AC4204D00025D0EB050E7F
:1029100065EB010624B10020D2EB000760EB030C4D
:10292000704631463A466346BDE8F08110B540EA4C
:1029300001040346A40703D009E010C9121F10C305
:10294000042AFAD203E011F8014B03F8014B521E9E
:10295000F9D210BDD2B201E000F8012B491EFBD222
:1029600070470022F6E710B513460A46044619469A
:10297000FFF7F0FF204610BD10B5044604E00B78C9
:1029800000F8013B03B1491C521EF8D2204610BD8D
:10299000CAB2401E10F8011F8A4202D00029F9D1A4
:1029A00000207047421C10F8011B0029FBD1801A3F
:1029B000704730B505460020034600E05B1C93429B
:1029C00005D2EC5CC85C201A01D1002CF6D130BDD8
:1029D00030B50B46014600202022012409E021FAEF
:1029E00002F59D4205D303FA02F5491B04FA02F5EC
:1029F0002844151EA2F10102F1DC30BD202A04DBBF
:102A0000203A00FA02F1002070479140C2F1200301
:102A100020FA03F3194390407047202A04DB203A40
:102A200021FA02F00021704721FA02F3D040C2F1EE
:102A3000200291400843194670472DE9FE4F804619
:102A400081EA0300C00F0C46009021F0004123F002
:102A50000045B8EB0200A94105D240462146904608
:102A60001C460B46024623F00040104347D0270D7A
:102A7000C7F30A00C3F30A510290401A019040289C
:102A80006BDAC3F3130040F4801B0098924620B128
:102A90000023D2EB030A63EB0B0B01985946C0F1FC
:102AA00040025046FFF7AAFF06460D4650465946DB
:102AB000019A00F091F910EB08006141002487EAC7
:102AC000115284EAE7731A4340D0009A62B3019A24
:102AD000012A4FEA075215DC001B61EB02014FF09F
:102AE000004202EA0752CDE90042001C41F5801184
:102AF00032462B4600F091F903B0BDE8F08F404616
:102B00002146F9E7001B61EB0201001C41F580132F
:102B100000185B412018A2F5001747EB030140EABB
:102B2000D570B6196D4111E06D084FEA360645EAD9
:102B3000C0754FEA0752001B61EB0201001C41F512
:102B4000801149084FEA30000019514132462B46A6
:102B500003B0BDE8F04F00F051B9009801224000E9
:102B60000023D0EB020263EBE073009821464FEAAA
:102B7000E074B8EB000061EB0401E9E783F0004387
:102B80005BE781F0004158E72DE9FE4F81EA03043D
:102B900004F0004421F0004100944FF0000B23F0BA
:102BA000004350EA01045ED052EA03045BD0C3F351
:102BB0000A54C1F30A552C44A4F2F3340194A0FB47
:102BC0000254C1F3130141F48011C3F3130343F41E
:102BD000801301FB024400FB034E840A970A44EA77
:102BE000815447EA8357A4FB076802958D0A05FBC9
:102BF00007854FEA932C04FB0C542705029D4FEAEE
:102C0000065847EA1637B5EB08056EEB070C870E3A
:102C1000920E47EA811742EA8312A7FB0201B6EB44
:102C20000B0164EB00042B0D43EA0C335E1844EBFC
:102C30001C50DA465146E7FB0201C5F313044FEA84
:102C40000B3343EA14534FEA0432019C43EA060370
:102C5000A4F10C040294009CCDE900B400F0DDF86E
:102C600003B0BDE8F08F00200146F9E72DE9F04DF3
:102C700081EA030404F0004B21F0004514464FF0B4
:102C8000000A23F0004150EA050220D054EA010274
:102C90001DD0C5F30A570246C5F31303C1F3130051
:102CA000C1F30A5640F4801543F48013A7EB0608DD
:102CB000101BD64608F2FD3873EB050002D308F16D
:102CC000010801E092185B41B8F1000F03DA00201F
:102CD0000146BDE8F08D00204FF480110646844681
:102CE0000EE0171B73EB050705D3121B63EB0503FF
:102CF00006434CEA010C49084FEA300092185B4148
:102D000050EA0107EDD152EA030012D082EA040032
:102D100083EA0501084305D0101BAB4106D201220E
:102D2000002306E000224FF0004302E06FF00102B2
:102D300053101AEB06004CEB085110EB0A0041EB64
:102D40000B01BDE8F04D00F059B870B521F000431B
:102D500003430CD0C1F30A550024D5EB040564EB02
:102D60000403D617AD1AB34102DB0020014670BD43
:102D7000201841EB025170BDC1F30A52C1F3130197
:102D800040F2FF3341F480119A4202DA00200146FA
:102D9000704740F233439A42A2F2334202DC52427D
:102DA000FFF73BBEFFF72ABE30B5041E71F10004E9
:102DB00004DB4FF00044404264EB0101141E73F148
:102DC000000405DB1C464FF00043524263EB040352
:102DD000994208BF904230BD202A06DBCB17203A2B
:102DE00041FA02F043EAE07306E041FA02F3D04010
:102DF000C2F12002914008431946704710B5141ED5
:102E000073F1000408DA401C41F1000192185B41A3
:102E10001A4301D120F0010010BD2DE9F04D92467A
:102E20009B4611B1B1FA81F202E0B0FA80F2203291
:102E30009046FFF7E3FD04460F4640EA0A0041EAE8
:102E40000B0153465A46084313D0114653EA01007A
:102E500019D0C8F140025046FFF7DFFD05460E4687
:102E6000504659464246FFF7C9FD084305D00120A8
:102E700004E020463946BDE8F08D0020054346EACF
:102E8000E0762C4337430A986305E40AA0EB080078
:102E90000022FD0A44EA47540A3002D500200146C8
:102EA000E9E7010510196941DDE9084500196941A3
:102EB000BDE8F04DA2E770B58C1810F8015B15F075
:102EC000070301D110F8013B2A1106D110F8012B9C
:102ED00003E010F8016B01F8016B5B1EF9D12B07C1
:102EE00005D40023521E0DD401F8013BFAE710F877
:102EF000013BCB1A921C03E013F8015B01F8015B64
:102F0000521EF9D5A142D8D3002070BD00000000A8
:102F1000BFF35F8F4EF62451CEF20001086820F413
:102F2000803008604EF69451CEF20001086820F01F
:102F3000010008607047000081B00090009840F0E8
:102F400001004EF69451CEF2000108604EF6245175
:102F5000CEF20001086840F480300860BFF34F8F64
:102F6000BFF36F8F01B0704780B588B041F6A820DD
:102F7000C2F20000B0F900000AF076FF40F24410FF
:102F8000C2F2000006F0ECF88DED070A41F6AA2027
:102F9000C2F20000B0F900000AF066FF40F25410DF
:102FA000C2F2000006F0DCF88DED060A41F6AC2016
:102FB000C2F20000B0F900000AF056FF40F26410BF
:102FC000C2F2000006F0CCF88DED050A40F67C0058
:102FD000C2F20000006809280EDCFFE740F2401151
:102FE000C2F200010020086040F67C01C2F200013C
:102FF0000868013008602AE09DED060AB7EEC00AB5
:103000008DED020B9DED071A9DED050A20EE000ADD
:10301000A1EE010AB7EEC00A0FF0EAFEB0EE401BC7
:103020009DED020B80EE010B0EF09EFF9FED1E1B2F
:1030300020EE010B9FED1E1B80EE010BB7EEC00BC7
:1030400040F24010C2F2000080ED000AFFE79DED63
:10305000070AB7EEC00A8DED000B9DED061A9DED37
:10306000050A20EE000AA1EE010AB7EEC00A0FF031
:10307000BFFEB0EE401B9DED000B80EE010B0EF08D
:1030800073FF9FED091B20EE010B9FED091B80EEE6
:10309000010BB7EEC00B40F23C10C2F2000080ED15
:1030A000000A08B080BD00BF00000000008066403C
:1030B000282D4454FB21094080B58AB04FF40040CC
:1030C00001F01AFE48F2C021C4F20D01086840F474
:1030D00080300860086820F40030086043F2006027
:1030E000C0F26E1001F014FE002001F051FC01F05E
:1030F00093FC0120099001F017FE09994CF200029F
:10310000C4F20F0210687F2363F30700106046F6D5
:103110001840C8F2000001F087FD099943F6141029
:10312000C1F2004001F080FD0C21C4F208010868E2
:10313000132262F304000860FFE70020C4F20800D5
:10314000006800F00040B0F1004F01D0FFE7F4E765
:1031500041F66430C8F2010001F0E6FB00F01CFE0D
:1031600048F20000C4F20D0002900D21C0F270017F
:103170000122079201F0A0FD48F27011C4F20D0186
:103180000191086820F400400860086820F40000FD
:10319000086048F27001C4F20D01086840F4005064
:1031A000086000F011FE019A48F2A001C4F20D017E
:1031B000086840F480300860106820F040401060DB
:1031C000086840F40050086000F0EEFD0298079A8D
:1031D0000D21C0F2E00101F06FFD079A48F2E00115
:1031E000C4F20D01086862F301000860086840F449
:1031F00000500860086820F00C000860086840F47F
:1032000080100860086840F40010086000F0D4FDE9
:103210000298079A0D21C0F2200101F04DFD48F2FD
:103220002001C4F20D01086840F4005008604EF619
:103230001420C0F200400021069101F065FC4FF41B
:10324000887000F005FE4FF4847000F001FE40F23B
:10325000162000F0FDFD4FF4067000F0F9FD46F673
:103260001400C8F200000321059101F04DFC0799FC
:103270004EF21000C4F2000001F046FC059947F23E
:103280001820C8F2000001F0CFFC069943F6141094
:10329000C1F2004001F0C8FC06994FF61430C8F2A4
:1032A000000001F031FC069946F61840C8F2000013
:1032B00001F0BAFC4FF48A7000F0CAFD4FF48B7035
:1032C00000F0C6FD182000F0C3FD1A2000F0C0FD7C
:1032D0004FF4867000F0BCFD07994EF21C00C8F256
:1032E000070001F011FC069942F21C60C8F20000D0
:1032F00001F09AFC40F2026000F0AAFD07994EF638
:103300002430C8F2000001F0FFFB069943F21C00D4
:10331000C8F2000001F088FC40F2046000F098FD63
:1033200007994FF22400C8F2000001F0EDFB069966
:1033300043F21C10C8F2000001F076FC40F20A6073
:1033400000F086FD06994FF21C70C8F2000001F0F3
:10335000DBFB059947F61C50C8F2000001F064FC45
:1033600040F2022000F074FD07994EF63C30C8F29E
:10337000000001F0C9FB069946F63C10C8F20000B7
:1033800001F052FC4FF4807000F062FD4FF4817048
:1033900000F05EFD4FF4827000F05AFD4FF4837030
:1033A00000F056FD4FF61820C8F20000042101F08D
:1033B000ABFB46F21840C8F200000221039101F075
:1033C00033FC162000F044FD039947F62410C8F2A0
:1033D000000001F099FB039946F61860C8F200005E
:1033E00001F022FC40F2125000F032FD05994EF23D
:1033F0002860C8F2000001F087FB07994EF2280010
:10340000C8F2070001F080FB069946F61C20C8F2BE
:10341000000001F009FC40F2145000F019FD05997C
:103420004EF22C60C8F2000001F06EFB07994EF2DC
:103430002C00C8F2070001F067FB069946F61C4015
:10344000C8F2000001F0F0FB40F2165000F000FD61
:1034500005994FF22860C8F2000001F055FB07996A
:103460004FF22800C8F2070001F04EFB069946F61D
:103470001C60C8F2000001F0D7FB40F2062000F00B
:10348000E7FC4FF4027000F0E3FC40F20A2000F089
:10349000DFFC06994FF23830C8F2070001F034FB28
:1034A000069943F23820C8F2000001F0BDFB0E205F
:1034B00000F0CEFC1220089000F0CAFC40F206702A
:1034C00000F0C6FC102000F0C3FC142000F0C0FC8B
:1034D0004FF4E16000F0BCFC07994EF22020C8F2E6
:1034E000070001F011FB039946F62000C8F2000026
:1034F00001F09AFB4FF4A36000F0AAFC1C2000F03E
:10350000A7FC0C2000F0A4FC4FF48C7000F0A0FC91
:1035100040F2023000F09CFC40F2063000F098FCD3
:1035200040F21A5000F094FC40F20E6000F090FC63
:1035300006994EF22400C8F2070001F0E5FA069958
:1035400042F22460C8F2000001F06EFB40F20A3043
:1035500000F07EFC07994EF63840C8F2000001F0FA
:10356000D3FA05994FF21870C8F2000001F0CCFAB6
:103570004EF63870C8F20000052101F055FB40F20C
:103580000E5000F065FC07994FF63010C8F20000AD
:1035900001F0BAFA4FF23060C8F20000072104913E
:1035A00001F0B2FA059947F23040C8F2000001F08C
:1035B0003BFB40F2025000F04BFC07994EF63040C6
:1035C000C8F2000001F0A0FA04994EF63010C8F2DB
:1035D000000001F099FA059946F23070C8F2000037
:1035E00001F022FB4FF4407000F032FC07994EF6D8
:1035F0002810C8F2000001F087FA07994FF628104A
:10360000C8F2000001F080FA059947F22030C8F2B4
:10361000000001F009FB069942F20C00C8F200001C
:1036200001F002FB079B089A48F26011C4F20D01F9
:10363000086820F01F0008604CF26001C4F20F011E
:10364000086820F070000860086863F303000860F1
:10365000086820F460000860086862F3144008609D
:10366000086820F480700860086820F08000086016
:10367000086820F08070086040F2A401C2F20001E6
:1036800044F20060C2F2C33008600AB080BD00009E
:1036900080B588B04EF61450CEF20000006880036A
:1036A000002817D5FFE7BFF34F8FBFF36F8F4EF69C
:1036B0001451CEF20001086820F4003008604EF684
:1036C0005071CEF2000100200860BFF34F8FBFF3AE
:1036D0006F8FFFE74EF61450CEF200000068C00373
:1036E00000283DD5FFE74EF68451CEF200010020C0
:1036F0000860BFF34F8F4EF61451CEF200010868F8
:1037000020F480300860BFF34F8F4EF68050CEF229
:103710000000006804900498C0F34E300390FFE767
:103720000498C0F3C9000290FFE70399029880074C
:1037300061F34D104EF67471CEF2000108600298EC
:10374000411E02910028F0D1FFE70398411E03912A
:103750000028E5D1FFE7BFF34F8FBFF36F8FFFE77F
:10376000FFF7D6FB4EF69C52CEF2000200921020DC
:10377000CCF2000010604EF6A051CEF20001019193
:103780003920C0F2103008601120C8F2000010602B
:103790003B20C0F2103008601223C7F20003136010
:1037A0002B23C0F203630B60132313600860142003
:1037B00010601F20C0F2033008601520C2F2000024
:1037C00010602520C0F2033008601623C2F22003E7
:1037D000136008601720C2F2280010600920C0F2B0
:1037E000033008601820C8F2000010603120C0F2D9
:1037F000033008601920C8F2E01010602920C0F2E0
:10380000083008600420FFF797FB4EF61450CEF204
:1038100000000068C003002801D5FFE73CE04EF639
:103820008451CEF2000100200860BFF34F8F4EF6A6
:103830008050CEF20000006807900798C0F34E3029
:103840000690FFE70798C0F3C9000590FFE70699C7
:103850000598800761F34D104EF66071CEF20001BD
:1038600008600598411E05910028F0D1FFE70698F1
:10387000411E06910028E5D1FFE7BFF34F8F4EF6BA
:103880001451CEF20001086840F480300860BFF3A4
:103890004F8FBFF36F8FFFE74EF61450CEF200004C
:1038A00000688003002801D5FFE71AE0BFF34F8FBF
:1038B000BFF36F8F4EF65071CEF20001002008600A
:1038C000BFF34F8FBFF36F8F4EF61451CEF200014E
:1038D000086840F400300860BFF34F8FBFF36F8F6C
:1038E000FFE708B080BD000080B584B042F22460DC
:1038F000C8F2000000F0F8FBD0B9FFE70D20C0F2DD
:10390000100000F009FD4AF6AB21CAF6AA21A0FB7F
:103910000110800802904EF22400C8F2070000F067
:1039200007FB014602980131B0FBF1F003900FE074
:1039300000F00AFC01904EF22400C8F2070000F0EB
:10394000F7FA014601980131B0FBF1F00390FFE76F
:10395000039804B080BD000080B5FFF7ADFB80BDCB
:10396000FFE7FEE70000000080B541F67840C2F2B4
:103970000000406808B1FFE70BE042F2E000C8F247
:10398000010042F23111C8F2010141F2AD1208F01A
:10399000B3F841F67840C2F20000416840F2E0001E
:1039A000C2F2000002680020C4F21D009047BFF37D
:1039B0004F8F80BD0000000080B541F67840C2F214
:1039C0000000806808B1FFE70BE042F2FB00C8F29C
:1039D000010042F23111C8F2010141F2B81208F0BF
:1039E0008BF841F67840C2F20000816840F2E000B6
:1039F000C2F20000026844F20000C4F21D009047C9
:103A0000BFF34F8F80BD000080B541F67840C2F211
:103A10000000C06808B1FFE70BE042F21610C8F2E0
:103A2000010042F23111C8F2010141F2C31208F063
:103A300063F841F67840C2F20000C16840F2E0004D
:103A4000C2F20000026848F20000C4F21D00904774
:103A5000BFF34F8F80BD000080B584B0ADF80E007D
:103A60008DF80D10BDF90E00000A0290BDF80E0091
:103A700000F01F0001900298072801D8FFE70BE033
:103A800042F27D10C8F2010041F60471C8F2010152
:103A900040F2DF5208F030F802994CF26800C4F2AC
:103AA0000F0000EB810000900098019B03219940DA
:103AB0009DF80D209A4007F097FE04B080BD0000ED
:103AC00080B584B0ADF80E008DF80D10BDF90E0074
:103AD000000A0290BDF80E0000F01F00019002984D
:103AE000072801D8FFE70BE042F27D10C8F2010081
:103AF00041F60471C8F2010140F2DF5207F0FCFF09
:103B000002994CF26800C4F20F0000EB81000090B3
:103B10000098019B032199409DF80D209A4007F0E1
:103B20007FFE04B080BD000080B584B0ADF80E000B
:103B30008DF80D10BDF90E00000A0290BDF80E00C0
:103B400000F01F0001900298072801D8FFE70BE062
:103B500042F27D10C8F2010041F60471C8F2010181
:103B600040F2DF5207F0C8FF02994CF26800C4F23D
:103B70000F0000EB810000900098019B0321994009
:103B80009DF80D209A4007F067FE04B080BD00004C
:103B900080B584B0ADF80E008DF80D10BDF90E00A3
:103BA000000A0290BDF80E0000F01F00019002987C
:103BB000072801D8FFE70BE042F27D10C8F20100B0
:103BC00041F60471C8F2010140F2DF5207F094FFA0
:103BD00002994CF26800C4F20F0000EB81000090E3
:103BE0000098019B032199409DF80D209A4007F011
:103BF0004FFE04B080BD000080B584B0ADF80E006B
:103C00008DF80D10BDF90E00000A0290BDF80E00EF
:103C100000F01F0001900298072801D8FFE70BE091
:103C200042F27D10C8F2010041F60471C8F20101B0
:103C300040F2DF5207F060FF02994CF26800C4F2D4
:103C40000F0000EB810000900098019B0321994038
:103C50009DF80D209A4007F037FE04B080BD0000AB
:103C600080B584B0ADF80E008DF80D10BDF90E00D2
:103C7000000A0290BDF80E0000F01F0001900298AB
:103C8000072801D8FFE70BE042F27D10C8F20100DF
:103C900041F60471C8F2010140F2DF5207F02CFF37
:103CA00002994CF26800C4F20F0000EB8100009012
:103CB0000098019B032199409DF80D209A4007F040
:103CC0001FFE04B080BD000080B584B0ADF80E00CA
:103CD0008DF80D10BDF90E00000A0290BDF80E001F
:103CE00000F01F0001900298072801D8FFE70BE0C1
:103CF00042F27D10C8F2010041F60471C8F20101E0
:103D000040F2DF5207F0F8FE02994CF26800C4F26C
:103D10000F0000EB810000900098019B0321994067
:103D20009DF80D209A4007F007FE04B080BD00000A
:103D300080B584B0ADF80E008DF80D10BDF90E0001
:103D4000000A0290BDF80E0000F01F0001900298DA
:103D5000072801D8FFE70BE042F27D10C8F201000E
:103D600041F60471C8F2010140F2DF5207F0C4FECF
:103D700002994CF26800C4F20F0000EB8100009041
:103D80000098019B032199409DF80D209A4007F06F
:103D9000EFFD04B080BD000048F27001C4F20D01D7
:103DA0004FF480500860704748F2E001C4F20D0102
:103DB0004FF480500860704748F22001C4F20D01B2
:103DC000002008607047000048F2A001C4F20D0115
:103DD0004FF480500860704780B582B0ADF806009F
:103DE000BDF906000021FFF76BFE02B080BD0000A8
:103DF00080B582B0ADF80600BDF906000021FFF7DE
:103E0000C7FE02B080BD000080B582B0ADF80600EC
:103E1000BDF906000021FFF7EFFE02B080BD0000F3
:103E200080B582B0ADF80600BDF906000021FFF7AD
:103E300017FF02B080BD000080B582B0ADF806006B
:103E4000BDF906000021FFF73FFF02B080BD000072
:103E500080B582B0ADF80600BDF906000021FFF77D
:103E600067FF02B080BD000080B582B0ADF80600EB
:103E7000BDF906000321FFF7EFFD02B080BD000091
:103E800080B582B0ADF80600BDF906000321FFF74A
:103E900017FE02B080BD000080B582B0ADF806000C
:103EA000BDF906000321FFF73FFE02B080BD000010
:103EB00080B582B0ADF80600BDF906000321FFF71A
:103EC00067FE02B080BD000080B582B0ADF806008C
:103ED000BDF906000321FFF78FFE02B080BD000090
:103EE00080B582B0ADF80600BDF906000321FFF7EA
:103EF000B7FE02B080BD000080B582B0ADF806000C
:103F0000BDF906000321FFF7DFFE02B080BD00000F
:103F100080B500F059F94CF21401C4F20F010968A0
:103F200001F4E052012101EB9221B0FBF1F080BDE0
:103F300081B00090009840F6C071C0F2400161F37A
:103F40001F2000680099C1F34C32C1F304218A405C
:103F50001040C84001B0704780B584B08DF80F00A4
:103F60009DF80F00014601911B2800F2A7800199DE
:103F7000DFE801F00E0E12161A1E22262B32373CF5
:103F8000415F666D72777C81888F969D464A4F545B
:103F9000FFF7BEFF029094E000F0F2FB029090E089
:103FA00000F092F802908CE000F0EAF8029088E0CD
:103FB00000F0AEF8029084E000F0DEFB029080E0BA
:103FC0000D2000F0A9F902907BE00D20C0F2100056
:103FD00000F0A2F9029074E0002000F055FC02907D
:103FE0006FE0012000F050FC02906AE0022000F037
:103FF0004BFC029065E0032000F046FC029060E07C
:1040000000F096FB02905CE000F092FB80080290CA
:1040100057E000F08DFBC008029052E000F088FBF2
:104020004AF6AB21CAF6AA21A0FB01108008029033
:1040300047E00D20C0F2200000F06EF9029040E051
:104040000D20C0F2300000F067F9029039E0002046
:1040500000F0CAFB029034E0012000F0C5FB0290A2
:104060002FE0022000F0C0FB02902AE0032000F0C5
:10407000BBFB029025E00D20C0F2E00000F04CF9FF
:1040800002901EE01420C0F2E00000F045F902901A
:1040900017E01520C0F2E00000F03EF9029010E0B9
:1040A0000D20C0F2700000F037F9029009E00D20F9
:1040B000C0F2A00000F030F9029002E0002002906F
:1040C000FFE7029804B080BD80B5FFF721FF4CF2F6
:1040D0001401C4F20F01096801F44072012101EBDF
:1040E0001221B0FBF1F080BD81B00090009840F645
:1040F000C071C0F2400161F31F2000680099C1F354
:104100004C32C1F304218A401040C84001B07047CE
:1041100081B048F27020C4F20D000068C00600288B
:1041200006D5FFE743F20060C0F26E10009006E093
:1041300041F69400C2F2000000680090FFE700988A
:1041400001B070470000000081B048F27020C4F256
:104150000D000068C006002806D5FFE743F20060A6
:10416000C0F26E10009006E041F69400C2F200002A
:1041700000680090FFE7009801B070470000000061
:1041800080B582B04CF21C00C4F20F0000684006FB
:10419000002804D5FFE7FFF7BBFF019003E0FFF71E
:1041A00093FF0190FFE74CF21C00C4F20F0000687F
:1041B00000F03F00411C0198B0FBF1F00190019824
:1041C00002B080BD0000000080B584B04CF2140045
:1041D000C4F20F000068800100283FD5FFE74CF2D1
:1041E0001800C4F20F00006800F44050014602912C
:1041F00078B1FFE70298B0F5805F11D0FFE7029831
:10420000B0F5005F10D0FFE70298B0F5405F12D024
:1042100012E00D20C0F2100000F07EF803900EE0D6
:10422000FFF776FF03900AE00D20C0F2300000F0A7
:1042300073F8039003E0FFE700200390FFE74CF2E0
:104240001400C4F20F00006800F06051012000EB80
:10425000D1610398B0FBF1F003903DE04CF21800FF
:10426000C4F20F00006800F440200146019178B1CB
:10427000FFE70198B0F5802F11D0FFE70198B0F566
:10428000002F11D0FFE70198B0F5402F11D01FE0AB
:104290000D20C0F2300000F03FF803901BE0022038
:1042A00000F0A2FA039016E0002000F09DFA0390BF
:1042B00011E00D2000F030F84CF21001C4F20F01B3
:1042C000096801F007010131B0FBF1F0039002E051
:1042D00000200390FFE7FFE7039804B080BD0000D3
:1042E00080B584B0039002910398BDF80A106FF373
:1042F0001F31405881B20020B0EB913F04D1FFE75D
:10430000FFF706FF019002E000200190FFE701980F
:1043100004B080BD0000000080B58CB00A900A99FE
:1043200048F20000C4F20D0000F092FB18B9FFE75C
:1043300000200B90F9E10A9948F20000C4F20D0048
:104340000590FFF7CDFF0146059809910A9900F005
:104350006FFB18B1FFE709980B90E6E10A9804900B
:104360000D283DD0FFE704980D21C0F210018842CE
:104370007DD0FFE704980D21C0F22001884200F0B3
:10438000C081FFE704980D21C0F23001884233D08C
:10439000FFE704980D21C0F27001884275D0FFE755
:1043A00004980D21C0F2A001884200F0FB80FFE7D5
:1043B00004980D21C0F2E001884200F07A81FFE705
:1043C00004981421C0F2E001884200F08381FFE7E5
:1043D00004981521C0F2E001884200F08C819EE132
:1043E000099848F20001C4F20D01096801F07F014B
:1043F00048434008099095E19DED090AB8EE400B4D
:1044000048F25000C4F20D0090ED001AB8EE411BC6
:1044100020EE010B8DED060B48F26000C4F20D009A
:1044200090ED000AB8EE401B9DED060B80EE010BEF
:104430008DED060B48F23000C4F20D000068C00795
:1044400028B1FFE7099816214843099005E009982B
:1044500000EB800080000990FFE79DED060BBCEEAD
:10446000C00B10EE101A0998084409905AE10998F7
:1044700048F21001C4F20D0109688A071421002ACC
:1044800048BF1621484309904CE148F27000C4F23D
:104490000D00016801F07F0108919DED090AB8EE59
:1044A000400B48F28001C4F20D0191ED001AB8EE04
:1044B000411B20EE010B8DED060B48F29001C4F27A
:1044C0000D0191ED000AB8EE401B9DED060B80EE4C
:1044D000010B8DED060B0999089A9DED060BBCEEBC
:1044E000C00B10EE103A01FB02310991006800F494
:1044F000C0100146039150B1FFE70398B0F5002FBB
:1045000009D0FFE70398B0F5801F08D008E00998AC
:104510008008099010E00998400809900CE00BE031
:1045200042F22800C8F2010041F6F271C8F201011E
:1045300040F2174207F0E0FA48F27010C4F20D00A2
:10454000006848F20001C0F2800108400146029173
:10455000D0B1FFE70298B0F5004F11D0FFE7029805
:10456000B0F5000F10D0FFE7029848F20001C0F24A
:104570008001884209D1FFE709988008099010E07E
:104580000998400809900CE00BE042F22800C8F2BC
:10459000010041F6F271C8F2010140F22B4207F02E
:1045A000ABFABFE048F2A000C4F20D00016801F0D0
:1045B0007F0108919DED090AB8EE400B48F2B00169
:1045C000C4F20D0191ED001AB8EE411B20EE010B73
:1045D0008DED060B48F2C001C4F20D0191ED000A09
:1045E000B8EE401B9DED060B80EE010B8DED060B2A
:1045F0000999089A9DED060BBCEEC00B10EE103A1F
:1046000001FB02310991006800F4C01001460191DC
:1046100050B1FFE70198B0F5002F09D0FFE70198EE
:10462000B0F5801F08D008E009988008099010E0D4
:104630000998400809900CE00BE042F22800C8F20B
:10464000010041F6F271C8F201014FF48B6207F0EC
:1046500053FA48F27010C4F20D00006800F04040B8
:1046600001460091B0F1004F15D0FFE70098B0F17E
:10467000404F08D0FFE7009868B1FFE70098B0F11D
:10468000804F04D008E009988008099010E009984C
:10469000400809900CE00BE042F22800C8F201004B
:1046A00041F6F271C8F2010140F26C4207F024FABF
:1046B00038E048F2E000C4F20D00006800F00300AA
:1046C0000890089941F65430C8F2010050F82100D2
:1046D000099027E048F2E000C4F20D000068C0F342
:1046E00081000890089941F65430C8F2010050F852
:1046F0002100099016E047F64000C0F27D100990B5
:1047000010E0099848F22001C4F20D0109688A07F7
:104710001421002A48BF16214843099002E00020D6
:104720000990FFE709980B90FFE70B980CB080BD4C
:1047300080B582B04CF20C00C4F20F00006800F0AB
:1047400001000146009120B1FFE70098012807D041
:104750000CE00D20C0F21000FFF7DEFD019008E034
:1047600043F20060C0F26E10019002E00020019060
:10477000FFE7019802B080BD4FF400407047000091
:1047800080B582B04CF21400C4F20F0000684006FD
:10479000002814D5FFE74CF21400C4F20F000068A3
:1047A0000006002805D5FFE7012000F06DF8019014
:1047B00004E0022000F018F80190FFE703E0FFF7A3
:1047C00003FD0190FFE74CF21400C4F20F000068F3
:1047D00000F4E021012000EB11410198B0FBF1F061
:1047E0000190019802B080BD80B584B08DF80F00B3
:1047F0000D20C0F23000FFF78FFD02909DF80F00F2
:1048000001460191032834D80199DFE801F0020E36
:104810001A2648F20010C4F20D00006800F03F01B3
:104820000298B0FBF1F0029026E048F20010C4F2CA
:104830000D000068C0F305210298B0FBF1F0029072
:104840001AE048F20010C4F20D000068C0F3054100
:104850000298B0FBF1F002900EE048F20010C4F2B2
:104860000D000068C0F305610298B0FBF1F0029002
:1048700002E000200290FFE7029800EBC000400039
:104880000290029804B080BD80B584B08DF80F000E
:104890000D20C0F21000FFF73FFD02909DF80F00C1
:1048A00001460191032834D80199DFE801F0020E96
:1048B0001A2648F2F000C4F20D00006800F03F0133
:1048C0000298B0FBF1F0029026E048F2F000C4F24A
:1048D0000D000068C0F305210298B0FBF1F00290D2
:1048E0001AE048F2F000C4F20D000068C0F3054180
:1048F0000298B0FBF1F002900EE048F2F000C4F232
:104900000D000068C0F305610298B0FBF1F0029061
:1049100002E000200290FFE7029800EBC000400098
:104920000290029804B080BD81B0009048F200016E
:10493000C4F20D01086820F4E030009A1279920365
:1049400092B2104400F580300860086843F27F029C
:104950009043009A126802F07F02104400F5005064
:104960000860FFE748F20000C4F20D000068C00FC5
:1049700008B9FFE7F6E748F20001C4F20D01086844
:1049800020F48030086001B0704700000000000093
:1049900082B08DF807009DF80700C00708B9FFE74F
:1049A0000AE042F21900C8F2010041F6F271C8F2C1
:1049B0000101C12207F0A0F848F25811C4F20D011C
:1049C0004FF080400860FFE748F27020C4F20D000D
:1049D0000068C003002801D4FFE7F5E748F254114E
:1049E000C4F20D014FF480300860FFE748F2501028
:1049F000C4F20D0000680004002801D4FFE7F5E7C9
:104A000048F25811C4F20D014FF48030086002B032
:104A1000704700000000000048F27021C4F20D0150
:104A2000086840F0010008607047000000000000C6
:104A300082B0019000910198BDF802106FF31F3110
:104A40004058C0F3004002B0704700000000000072
:104A500082B0019000910198BDF802106FF31F31F0
:104A60004058009901F01F01C84000F0010002B059
:104A7000704700000000000080B584B003900291F0
:104A80000398800E0190039840F6C072C0F2400275
:104A900062F31F2000680399C1F34C33C1F3042E65
:104AA00003FA0EFC20EA0C00029B03FA0EF303EA61
:104AB0000C03184462F31F2108600198202801D8D4
:104AC000FFE70BE041F6BC60C8F2010041F604715B
:104AD000C8F2010140F2BD5207F00EF801982028FB
:104AE0000DD0FFE7FFE74CF24800C4F20F0000686A
:104AF0000199C840C00708B1FFE7F4E7FFE704B039
:104B000080BD00000000000080B584B003900291D9
:104B10000398800E0190039840F6C072C0F24002E4
:104B200062F31F2000680399C1F34C33C1F3042ED4
:104B300003FA0EFC20EA0C00029B03FA0EF303EAD0
:104B40000C03184462F31F2108600198202801D843
:104B5000FFE70BE041F6BC60C8F2010041F60471CA
:104B6000C8F2010140F2BD5206F0C6FF01982028AC
:104B70000DD0FFE7FFE74CF24800C4F20F000068D9
:104B80000199C840C00708B1FFE7F4E7FFE704B0A8
:104B900080BD00000000000080B584B00390029149
:104BA0000398800E0190039840F6C072C0F2400254
:104BB00062F31F2000680399C1F34C33C1F3042E44
:104BC00003FA0EFC20EA0C00029B03FA0EF303EA40
:104BD0000C03184462F31F2108600198202801D8B3
:104BE000FFE70BE041F6BC60C8F2010041F604713A
:104BF000C8F201014FF4B16206F07EFF019820284F
:104C00000DD0FFE7FFE74CF24800C4F20F00006848
:104C10000199C840C00708B1FFE7F4E7FFE704B017
:104C200080BD00000000000080B584B003900291B8
:104C30000398800E0190039840F6C072C0F24002C3
:104C400062F31F2000680399C1F34C33C1F3042EB3
:104C500003FA0EFC20EA0C00029B03FA0EF303EAAF
:104C60000C03184462F31F2108600198202801D822
:104C7000FFE70BE041F6BC60C8F2010041F60471A9
:104C8000C8F201014FF4B16206F036FF0198202806
:104C90000DD0FFE7FFE74CF24800C4F20F000068B8
:104CA0000199C840C00708B1FFE7F4E7FFE704B087
:104CB00080BD00000000000083B0029001918DF8DB
:104CC00003209DF80300C00750B1FFE70298BDF82C
:104CD00006106FF31F3101444FF48030486009E043
:104CE0000298BDF806106FF31F3101444FF4803075
:104CF0008860FFE703B0704781B00090009841F6EC
:104D00009001C2F20001086001B07047000000008D
:104D100081B00090009841F69401C2F20001086051
:104D200001B070470000000081B08DF803009DF8CD
:104D3000030038B9FFE748F27421C4F20D011020D6
:104D4000086006E048F27821C4F20D0110200860E6
:104D5000FFE701B07047000080B540F2DC00C2F20E
:104D60000000026841F63840C2F2000001684CF2CF
:104D70000000C4F22B009047BFF34F8F80BD0000AE
:104D800080B5FFF7E9FFBFF34F8F80BD0000000043
:104D900080B582B0019000910198009902F0F0F97D
:104DA00002B080BD0000000080B548F20000C4F2EF
:104DB0000E00002101F09CFA4007002808D5FFE70B
:104DC00041F6A030C2F20000006801F0CDFAFFE722
:104DD00048F20000C4F20E00102101F089FA4007E9
:104DE000002808D5FFE741F6A030C2F20000006CB1
:104DF00001F0BAFAFFE7BFF34F8F80BD000000005B
:104E000080B548F20000C4F20E000A2101F070FAE9
:104E10004007002808D5FFE741F6A030C2F20000A5
:104E2000806A01F0A1FAFFE748F20000C4F20E0028
:104E30001A2101F05DFA4007002808D5FFE741F686
:104E4000A030C2F20000806E01F08EFAFFE7BFF3DF
:104E50004F8F80BD0000000080B548F20000C4F212
:104E60000E000B2101F044FA4007002808D5FFE7A7
:104E700041F6A030C2F20000C06A01F075FAFFE707
:104E800048F20000C4F20E001B2101F031FA400785
:104E9000002808D5FFE741F6A030C2F20000C06E3E
:104EA00001F062FAFFE7BFF34F8F80BD0000000002
:104EB00080B548F20000C4F20E000C2101F018FA8F
:104EC0004007002808D5FFE741F6A030C2F20000F5
:104ED000006B01F049FAFFE748F20000C4F20E004F
:104EE0001C2101F005FA4007002808D5FFE741F62C
:104EF000A030C2F20000006F01F036FAFFE7BFF306
:104F00004F8F80BD0000000080B548F20000C4F261
:104F10000E000D2101F0ECF94007002808D5FFE74D
:104F200041F6A030C2F20000406B01F01DFAFFE72D
:104F300048F20000C4F20E001D2101F0D9F940072B
:104F4000002808D5FFE741F6A030C2F20000406F0C
:104F500001F00AFAFFE7BFF34F8F80BD00000000A9
:104F600080B548F20000C4F20E000E2101F0C0F935
:104F70004007002808D5FFE741F6A030C2F2000044
:104F8000806B01F0F1F9FFE748F20000C4F20E0077
:104F90001E2101F0ADF94007002808D5FFE741F6D2
:104FA000A030C2F20000806F01F0DEF9FFE7BFF32E
:104FB0004F8F80BD0000000080B548F20000C4F2B1
:104FC0000E000F2101F094F94007002808D5FFE7F3
:104FD00041F6A030C2F20000C06B01F0C5F9FFE756
:104FE00048F20000C4F20E001F2101F081F94007D1
:104FF000002808D5FFE741F6A030C2F20000C06FDC
:1050000001F0B2F9FFE7BFF34F8F80BD0000000051
:1050100080B548F20000C4F20E00012101F068F9E9
:105020004007002808D5FFE741F6A030C2F2000093
:10503000406801F099F9FFE748F20000C4F20E0061
:10504000112101F055F94007002808D5FFE741F686
:10505000A030C2F20000406C01F086F9FFE7BFF318
:105060004F8F80BD0000000080B548F20000C4F200
:105070000E00022101F03CF94007002808D5FFE7A7
:1050800041F6A030C2F20000806801F06DF9FFE740
:1050900048F20000C4F20E00122101F029F9400785
:1050A000002808D5FFE741F6A030C2F20000806C6E
:1050B00001F05AF9FFE7BFF34F8F80BD00000000F9
:1050C00080B548F20000C4F20E00032101F010F98F
:1050D0004007002808D5FFE741F6A030C2F20000E3
:1050E000C06801F041F9FFE748F20000C4F20E0089
:1050F000132101F0FDF84007002808D5FFE741F62D
:10510000A030C2F20000C06C01F02EF9FFE7BFF33F
:105110004F8F80BD0000000080B548F20000C4F24F
:105120000E00042101F0E4F84007002808D5FFE74D
:1051300041F6A030C2F20000006901F015F9FFE766
:1051400048F20000C4F20E00142101F0D1F840072B
:10515000002808D5FFE741F6A030C2F20000006D3C
:1051600001F002F9FFE7BFF34F8F80BD00000000A0
:1051700080B548F20000C4F20E00052101F0B8F835
:105180004007002808D5FFE741F6A030C2F2000032
:10519000406901F0E9F8FFE748F20000C4F20E00B0
:1051A000152101F0A5F84007002808D5FFE741F6D2
:1051B000A030C2F20000406D01F0D6F8FFE7BFF367
:1051C0004F8F80BD0000000080B548F20000C4F29F
:1051D0000E00062101F08CF84007002808D5FFE7F3
:1051E00041F6A030C2F20000806901F0BDF8FFE78F
:1051F00048F20000C4F20E00162101F079F84007D1
:10520000002808D5FFE741F6A030C2F20000806D0B
:1052100001F0AAF8FFE7BFF34F8F80BD0000000048
:1052200080B548F20000C4F20E00072101F060F8DA
:105230004007002808D5FFE741F6A030C2F2000081
:10524000C06901F091F8FFE748F20000C4F20E00D7
:10525000172101F04DF84007002808D5FFE741F677
:10526000A030C2F20000C06D01F07EF8FFE7BFF38E
:105270004F8F80BD0000000080B548F20000C4F2EE
:105280000E00082101F034F84007002808D5FFE798
:1052900041F6A030C2F20000006A01F065F8FFE7B5
:1052A00048F20000C4F20E00182101F021F8400776
:1052B000002808D5FFE741F6A030C2F20000006EDA
:1052C00001F052F8FFE7BFF34F8F80BD00000000F0
:1052D00080B548F20000C4F20E00092101F008F880
:1052E0004007002808D5FFE741F6A030C2F20000D1
:1052F000406A01F039F8FFE748F20000C4F20E00FE
:10530000192100F0F5FF4007002808D5FFE741F616
:10531000A030C2F20000406E01F026F8FFE7BFF3B4
:105320004F8F80BD0000000080B59CB01A9019918D
:1053300018921793002005901A99049104994A1C19
:1053400004920870199890ED000B8DED0A0B9DEDFD
:105350000A0BB5EE400BF1EE10FA09D1FFE7049904
:105360003020087005980130059005981B9002E1E7
:105370009DED0A0B06A80DF01FF88DED080B00201F
:105380001390FFE71398179988420FD2FFE79DED1E
:10539000180AB8EEC01B9DED080B20EE010B8DED39
:1053A000080BFFE7139801301390EBE79DED0A0B14
:1053B000B5EE400BF1EE10FA28DBFFE79DED080B90
:1053C000B6EE001B30EE010B8DED100B9DED100BBA
:1053D0008DED020B9DED170AB8EE401BB2EE040BEB
:1053E0000DF04AF8B0EE401B9DED020BB4EE410B00
:1053F000F1EE10FA09DBFFE79DED060BB7EE001B9F
:1054000030EE010B8DED060BFFE729E09DED080B5B
:10541000BEEE001B30EE010B8DED100B9DED100B61
:105420008DED000B9DED170AB8EE401BB2EE040B9C
:105430000DF022F8B0EE401B9DED000BB1EE411BCC
:10544000B4EE410BF1EE10FA09DCFFE79DED060B1F
:10545000BFEE001B30EE010B8DED060BFFE7FFE703
:1054600000201390FFE71398179988423DD2FFE779
:105470009DED100B9DED181AB8EEC11B80EE010BCF
:105480008DED0C0B9DED100B9DED0C1BB6EEC11BB5
:105490009DED182AB8EEC22BA1EE420B8DED0E0B3E
:1054A0009DED0E0BBDEEC00B8DED140A1498B0F1FE
:1054B000FF3F05DCFFE71498C0F13000149003E0D3
:1054C000149830301490FFE79DED0C0B8DED100B10
:1054D000149804994A1C04920870059801300590AC
:1054E000FFE7139801301390BDE70499481C04901E
:1054F0002E2008700598013005909DED060BBDEE3D
:10550000C00B8DED160A169848B9FFE70499481CA0
:1055100004903020087005980130059028E0FFE7DE
:10552000169820B3FFE71698189990FBF1F01590A4
:10553000169A1598189900FB112014901498B0F140
:10554000FF3F05DCFFE71498C0F13000149003E042
:10555000149830301490FFE7159816901498049919
:105560004A1C04920870059801300590D8E7FFE7BF
:1055700005981B90FFE71B981CB080BD0000000041
:10558000B0B598B084461C98CDF858C015911492C7
:1055900013938DF84B00002001900390169902910F
:1055A00002994A1C02920870119010900F900E9070
:1055B0000D900C900B900A9009900890079006901F
:1055C000059004901498002863D0FFE715990868A7
:1055D00049681191109010981199084348B9FFE754
:1055E00002993020087003980130039003981790B7
:1055F000B9E0FFE7109811990843002848D0FFE769
:1056000010981199139AD317FDF75FF90F910E9027
:1056100010991198DDF838E00F9ADDF84CC04FEA88
:10562000EC74AEFB0C350EFB045E02FB0CE2C91AF7
:1056300090410C910D900D98B0F1FF3F12DCFFE707
:105640000C980D990791069006980799C043C94395
:105650000591049004990598313140F100000C91B6
:105660000D9007E00C990D98303140F100000C913D
:105670000D90FFE70E980F99119110909DF8300052
:1056800002994A1C02920870039801300390B1E716
:1056900066E01599086849680B910A900A980B9979
:1056A000084348B9FFE70299302008700398013099
:1056B00003900398179056E0FFE70A980B99084368
:1056C00000284CD0FFE70A980B99139AD317FDF7DF
:1056D000CBF8099108900A990B98DDF820E0099A17
:1056E000DDF84CC04FEAEC74AEFB0C350EFB045EEB
:1056F00002FB0CE2C91A904106910790069807999F
:10570000D0F109004FF00000884108D3FFE7069967
:105710000798303140F100000691079011E006999A
:1057200007989DF84B20D3076122002B18BF412218
:10573000891840F100000A3960F1000006910790D5
:10574000FFE7089809990B910A909DF818000299B3
:105750004A1C02920870039801300390ADE7FFE7FE
:1057600003981790FFE7179818B0B0BD000000002D
:1057700083B080B583B00793069205910290002014
:10578000009005A801900298019900F065FD009035
:10579000009803B0BDE8804003B0704700000000EF
:1057A00080B5ACB02B922A90299100201E901D90BC
:1057B0001B908DF85A001190109029982890FFE7BF
:1057C000289890F9000010B9FFE700F002BD289872
:1057D00000788DF89F009DF99F0025280BD0FFE7EA
:1057E0002A999DF99F0088471B9801301B902898A3
:1057F00001302890E4E701208DF85B00002015902F
:105800008DF87300FFE79DF87300C007002837D1BB
:10581000FFE72898411C289190F9010020380146A3
:105820000A91102824D80A99DFE801F01322221DDA
:10583000222222222222220E220922221800159838
:1058400040F0010015901AE0159840F00200159004
:1058500015E0159840F00400159010E0159840F000
:10586000080015900BE0159840F01000159006E028
:1058700028980138289001208DF87300FFE7C2E7CF
:1058800000201A908DF87300FFE79DF87300C007A1
:1058900070BBFFE72898411C289140788DF89F0045
:1058A0009DF99F0030280FDBFFE79DF99F00392805
:1058B0000ADCFFE71A9800EB80019DF99F0000EBDE
:1058C000410030381A9012E09DF99F002A2806D135
:1058D000FFE72B98011D2B9100681A9006E028988D
:1058E0000138289001208DF87300FFE7FFE7CCE72F
:1058F0000620199000208DF83F002898411C28911F
:1059000090F901002E283FD1FFE7002019908DF873
:105910007300FFE79DF87300C007A0BBFFE728985E
:10592000411C289140788DF89F009DF99F003028F8
:1059300012DBFFE79DF99F0039280DDCFFE719987E
:1059400000EB80019DF99F0000EB41003038199079
:1059500001208DF83F0015E09DF99F002A2809D10C
:10596000FFE72B98011D2B910068199001208DF8FD
:105970003F0006E028980138289001208DF8730038
:10598000FFE7FFE7C6E703E0289801382890FFE724
:105990002898411C289190F9010001460991682836
:1059A00004D0FFE709986C2816D02BE02898411CFA
:1059B000289190F90100682808D0FFE7159840F079
:1059C0004000159028980138289004E0159840F080
:1059D00020001590FFE719E02898411C289190F9C4
:1059E00001006C2808D0FFE7159840F08000159062
:1059F00028980138289004E0159840F4807015909C
:105A0000FFE703E0289801382890FFE72898411C19
:105A1000289140788DF89F009DF99F0064282ED032
:105A2000FFE79DF99F00692829D0FFE79DF99F00B6
:105A3000662824D0FFE79DF99F0046281FD0FFE786
:105A40009DF99F0078281AD0FFE79DF99F005828FC
:105A500015D0FFE79DF99F006F2810D0FFE79DF953
:105A60009F0062280BD0FFE79DF99F00702806D0A9
:105A7000FFE79DF99F00752840F01383FFE79DF92C
:105A80009F00642806D0FFE79DF99F00692840F039
:105A9000BE80FFE79DF85500C00760B1FFE72B9877
:105AA000073020F0070101F108002B9008684968D1
:105AB0001391129016E09DF854000006002808D5B6
:105AC000FFE72B98011D2B910168C81712911390C5
:105AD00007E02B98011D2B910168C81712911390B4
:105AE000FFE7FFE79DF85B0000F0010069460860F2
:105AF0000DF17E00089012A901220A23FFF740FD54
:105B0000014608981D911D9908441E901398B0F104
:105B1000FF3F07DCFFE72D208DF853001D98013073
:105B20001D901FE09DF854008007002807D5FFE76F
:105B30002B208DF853001D9801301D9011E09DF829
:105B400054004007002807D5FFE720208DF85300B8
:105B50001D9801301D9003E000208DF85300FFE7F1
:105B6000FFE7FFE700208DF852009DF85400000782
:105B700000281BD5FFE79DF9530040B1FFE72A99A4
:105B80009DF9530088471B9801301B90FFE70120C7
:105B90008DF852001D991A9A2A986B461860302089
:105BA0001BAB00F019FB1A981D901EE09DF85400E5
:105BB000C007C8B9FFE71D991A9A2A986B46186062
:105BC00020201BAB00F008FB9DF9530040B1FFE71C
:105BD0002A999DF9530088471B9801301B90FFE7D5
:105BE00001208DF85200FFE7FFE79DF85200C00743
:105BF00060B9FFE79DF9530040B1FFE72A999DF98D
:105C0000530088471B9801301B90FFE7FFE79DF981
:105C10009F00662806D0FFE79DF99F00462840F0C8
:105C20009E80FFE72B98073020F0070000F1080165
:105C30002B9190ED000B8DED0C0B199B0DF17E005F
:105C400007900CA90A22FFF76FFB014607981D91E8
:105C50001D9908441E909DED0C0BB5EE400BF1EE26
:105C600010FA07DAFFE72D208DF853001D98013058
:105C70001D901FE09DF854008007002807D5FFE71E
:105C80002B208DF853001D9801301D9011E09DF8D8
:105C900054004007002807D5FFE720208DF8530067
:105CA0001D9801301D9003E000208DF85300FFE7A0
:105CB000FFE7FFE700208DF852009DF85400000731
:105CC00000281BD5FFE79DF9530040B1FFE72A9953
:105CD0009DF9530088471B9801301B90FFE7012076
:105CE0008DF852001D991A9A2A986B461860302038
:105CF0001BAB00F071FA1A981D901EE09DF854003D
:105D0000C007C8B9FFE71D991A9A2A986B46186010
:105D100020201BAB00F060FA9DF9530040B1FFE773
:105D20002A999DF9530088471B9801301B90FFE783
:105D300001208DF85200FFE7FFE79DF85200C007F1
:105D400060B9FFE79DF9530040B1FFE72A999DF93B
:105D5000530088471B9801301B90FFE7FFE79DF930
:105D60009F00582806D0FFE79DF99F00782840F053
:105D7000C880FFE79DF99F00782804D1FFE7002045
:105D80008DF85B00FFE79DF85500C00760B1FFE7A5
:105D90002B98073020F0070101F108002B900868CC
:105DA00049681191109016E09DF8540000060028F3
:105DB00008D5FFE72B98011D2B9100680021119158
:105DC000109007E02B98011D2B9100680021119184
:105DD0001090FFE7FFE79DF85B0000F001006946C7
:105DE00008600DF17E00059010A900220692102394
:105DF000FFF7C6FB0599024606981D921D9A1144AD
:105E00001E918DF852009DF854000007002825D5FA
:105E1000FFE79DF85400C006002813D5FFE72A9934
:105E2000302088472A999DF85B00C2077820002A15
:105E300018BF582088471B9802301B9001208DF80E
:105E40005200FFE71D991A9A2A986B461860302075
:105E50001BAB00F0C1F91A981D9033E09DF8540077
:105E6000C00600282DD4FFE79DF85400C006002886
:105E700004D5FFE71D9802301D90FFE71D991A9A7F
:105E80002A986B46186020201BAB00F0A5F99DF8FE
:105E90005400C006002813D5FFE72A993020884710
:105EA0002A999DF85B00C2077820002A18BF582065
:105EB00088471B9802301B9001208DF85200FFE7A5
:105EC000FFE7FFE79DF85400C006002818D5FFE75C
:105ED0009DF85200C00798B9FFE72A9930208847FB
:105EE0002A999DF85B00C2077820002A18BF582025
:105EF00088471B9802301B901D9802301D90FFE7C9
:105F0000FFE79DF99F006F2810D0FFE79DF99F00E4
:105F100062280BD0FFE79DF99F00702806D0FFE7AD
:105F20009DF99F00752840F09780FFE79DF99F003D
:105F300070280BD1FFE72B98011D2B9100680B9067
:105F400010A80BA90422FCF7F1FC28E09DF85500ED
:105F5000C00760B1FFE72B98073020F0070101F17F
:105F600008002B90086849681191109016E09DF880
:105F700054000006002808D5FFE72B98011D2B913F
:105F8000006800211191109007E02B98011D2B91C2
:105F90000068002111911090FFE7FFE7FFE79DF9EE
:105FA0009F0062380146049113281CD80499DFE849
:105FB00001F00E1A1A1A1A1A1A1A1A1A1A1A1A0AA0
:105FC000121A1A1A1A1608208DF85A000CE002202C
:105FD0008DF85A0008E010208DF85A0004E00A20DD
:105FE0008DF85A0000E0FFE79DF85A309DF85B00FD
:105FF00000F00100694608600DF17E00039010A9D1
:106000000022FFF7BDFA014603981D911D9908442F
:106010001E909DF85400000700280CD5FFE71D993D
:106020001A9A2A986B46186030201BAB00F0D4F8FF
:106030001A981D900FE09DF85400C00750B9FFE773
:106040001D991A9A2A986B46186020201BAB00F005
:10605000C3F8FFE7FFE7FFE71E9890B1FFE7FFE710
:106060001E9890F9000058B1FFE72A991E98421E29
:106070001E9290F9000088471B9801301B90EFE7B3
:10608000FFE79DF85400C00750B1FFE71D991A9A29
:106090002A986B46186020201BAB00F09DF8FFE7A4
:1060A00092E09DF99F0063280CD1FFE72B98011D1A
:1060B0002B91006817902A99179888471B980130F0
:1060C0001B9080E09DF99F00732873D1FFE72B9808
:1060D000011D2B91006818901898002869D0FFE7DF
:1060E0009DF83F00C00718B1FFE719981D9004E024
:1060F0001898FCF757FC1D90FFE79DF85400C00767
:1061000050B9FFE71D991A9A2A986B46186020200B
:106110001BAB00F061F8FFE79DF83F00C00730B30C
:10612000FFE7FFE7189890F900100020029039B1BE
:10613000FFE71D9900200029C8BF01200290FFE75A
:106140000298C00770B1FFE72A991898421C18926C
:1061500090F9000088471B9801301B901D9801386A
:106160001D90DFE719981D99401A1D9011E0FFE777
:10617000189890F9000058B1FFE72A991898421C26
:10618000189290F9000088471B9801301B90EFE7A8
:10619000FFE79DF85400C00750B1FFE71D991A9A18
:1061A0002A986B46186020201BAB00F015F8FFE71B
:1061B000FFE707E02A999DF99F0088471B98013067
:1061C0001B90FFE7FFE7FFE7289801302890FFF7D3
:1061D000F7BA1B982CB080BD80B586B0DDF820C022
:1061E0008DF8170004910392029304980190FFE741
:1061F0000198039988420DDAFFE708999DF9170085
:1062000088470299086801300860FFE7019801306B
:106210000190EDE706B080BD80B584B0029041F6F4
:106220003C40C2F20000007C20B9FFE74FF0FF3095
:1062300003900BE041F63C40C2F20000836802A9E3
:1062400001220192984701980390FFE7039804B058
:1062500080BD00000000000080B584B00291019074
:106260000020009041F63C40C2F20000007C20B9C2
:10627000FFE74FF0FF3003900BE00199029A43F6DD
:10628000B150C8F20000FFF78BFA0090009803901D
:10629000FFE7039804B080BDFFE7FEE700000000C1
:1062A00083B0EFF31080019001980090EFF310801D
:1062B00072B60290009803B0704700000000000022
:1062C00080B582B0ADF8060000200090BDF9060050
:1062D000803018B9FFE70120009004E0BDF9060006
:1062E00005F062FBFFE7009802B080BD00000000EF
:1062F00084B00390029102981F2801D8FFE70BE0B9
:1063000042F22E00C8F2010042F27101C8F201010E
:1063100040F2013205F0F0FB002001900398029951
:1063200000EB411041F21C01405AC1B2019840EA11
:10633000D11001900398C06A0299C84000F0010191
:10634000019840EA410001900398406A0299C840D0
:1063500000F00101019840EA81000190019804B029
:10636000704700000000000080B588B007900798D3
:1063700008B1FFE70BE042F26200C8F2010042F20E
:106380007101C8F201014FF4AF6205F0B5FB079946
:10639000087C8968C87707998868097C00EB4110F8
:1063A00041F21C01405AC0B2C0098DF81B00079889
:1063B000C06880B9FFE70798006858B1FFE7079801
:1063C000D0F800C041689DF81B2002F001020023B4
:1063D000E047FFE7A8E007998868097C00EB4110D7
:1063E00041F218014058059007998868097C00EB34
:1063F000411041F21C01405AC0F300108DF80A0010
:106400000798C1680598401A0590059840090490BE
:106410009DF81B00C00720B1FFE704988DF80B0022
:1064200010E0049828B1FFE79DF8100001380190B2
:1064300004E00798007D01380190FFE701988DF88E
:106440000B00FFE79DF80B000799497C88421DD19E
:10645000FFE70798C07C8DF809000798007D8DF84C
:1064600008009DF909009DF90810884205D0FFE752
:106470009DF80A00C00728B9FFE7079890F91300B4
:10648000039002E000200390FFE71DE09DF80B0061
:10649000079991F91110401A03900398B0F1FF3F4A
:1064A00007DCFFE7079890F914100398084403905D
:1064B000FFE79DF81B00C00728B1FFE70799087C9C
:1064C00089680877FFE7FFE79DF80B000799487494
:1064D000039A0799C87C801AC8740798006858B155
:1064E000FFE70798D0F800C04168039B9DF81B2088
:1064F00002F00102E047FFE79DF81B00C00790B1E2
:10650000FFE707998868097C00EB411041F21C0104
:10651000405AC006002805D5FFE70799087C89681E
:106520000877FFE7FFE7FFE708B080BD0000000045
:1065300080B544F20000C4F22D0000F0E9F8BFF38A
:106540004F8F80BD0000000080B544F20000C4F20F
:106550002D0000F011F8BFF34F8F80BD0000000048
:1065600080B548F20000C4F22D0000F0D1F8BFF36E
:106570004F8F80BD0000000080B584B00390039869
:1065800040680290039800F093F8019003988168A6
:106590000298084002909DF80B0010F00C0F1AD0E2
:1065A000FFE7019941F67040C2F2000050F8210067
:1065B00080B1FFE7019B41F67040C2F2000050F845
:1065C0002320039841F62041C2F2000151F8231024
:1065D0009047FFE7FFE79DF80B008007D0B1FFE78A
:1065E000019941F66040C2F2000050F8210080B1EC
:1065F000FFE7019B41F66040C2F2000050F8232003
:10660000039841F62041C2F2000151F8231090474F
:10661000FFE7FFE7029810F4C03F19D0FFE70199A8
:1066200041F66840C2F2000050F8210080B1FFE757
:10663000019B41F66840C2F2000050F82320039805
:1066400041F62041C2F2000151F823109047FFE7C4
:10665000BDF80A0046F27C01084219D0FFE7019913
:1066600041F65840C2F2000050F8210080B1FFE727
:10667000019B41F65840C2F2000050F823200398D5
:1066800041F62041C2F2000151F823109047FFE784
:1066900004B080BD0000000080B548F20000C4F2E4
:1066A0002D00FFF769FFBFF34F8F80BD0000000092
:1066B00082B0019000200090FFE70098012811D8D7
:1066C000FFE7009941F67430C8F2010050F821004C
:1066D0000199884201D1FFE704E0FFE7009801300B
:1066E0000090EAE70098012801D8FFE70AE042F2AB
:1066F0009700C8F2010042F2BA01C8F20101BB22C0
:1067000005F0FAF9009802B07047000000000000A0
:1067100080B582B001900198FFF7CAFF0090009900
:1067200041F65040C2F2000050F8210080B1FFE76E
:10673000009B41F65040C2F2000050F8232001981F
:1067400041F62041C2F2000151F823109047FFE7C3
:1067500002B080BD0000000082B00090009801905F
:10676000019880F3108802B070470000000000001C
:1067700080B582B0ADF8060000200090BDF906009B
:10678000803018B9FFE70120009004E0BDF9060051
:1067900005F026F9FFE7009802B080BD0000000078
:1067A00080B582B0ADF8060000200090BDF906006B
:1067B000803018B9FFE70120009004E0BDF9060021
:1067C00005F026F9FFE7009802B080BD0000000048
:1067D00080B582B0ADF8060000200090BDF906003B
:1067E000803018B9FFE70120009004E0BDF90600F1
:1067F00005F026F9FFE7009802B080BD0000000018
:1068000080B500F009F880BD80B500F005F880BDC6
:1068100080B500F001F880BD80B582B000208DF811
:106820000700FFE79DF80700012827DCFFE79DF838
:10683000071041F68840C2F2000050F82100B0B1C4
:10684000FFE79DF8073041F69040C2F2000050F893
:10685000232041F69840C2F2000050F8230041F690
:106860008841C2F2000151F823109047FFE7FFE78B
:106870009DF8070001308DF80700D3E7BFF34F8F75
:1068800002B080BD0000000080B540F26400C2F29A
:106890000000406800F0E4F8C00748B1FFE740F2AC
:1068A0006400C2F200004068012100F079F8FFE7BF
:1068B00080BD00000000000080B540F22810C2F248
:1068C00000000068804740F26400C2F200004068A7
:1068D00000F0C6F8000CC00750B1FFE740F26400BA
:1068E000C2F2000040684FF4803100F059F8FFE731
:1068F00080BD00000000000080B540F2BC00C2F284
:1069000000000068804740F26400C2F20000806826
:1069100000F0A6F8C00748B1FFE740F26400C2F2F9
:1069200000008068012100F03BF8FFE707F0A0FCC1
:1069300080BD00000000000080B540F26400C2F29B
:106940000000806800F08CF8000CC00750B1FFE731
:1069500040F26400C2F2000080684FF4803100F021
:106960001FF8FFE707F0C0FD07F036FE80BD00000E
:1069700080B540F26400C2F20000C06800F070F818
:106980000009C00748B1FFE740F26400C2F200000E
:10699000C068102100F004F8FFE707F059FD80BD42
:1069A00080B582B0019000910198009900F080F9C3
:1069B00002B080BD0000000080B582B0019000915F
:1069C0000198009900F07CF902B080BD0000000041
:1069D00080B582B0019000910198009900F050F9C3
:1069E00002B080BD0000000080B582B0019000912F
:1069F0000198009900F050F902B080BD000000003D
:106A000082B0019000200090FFE700980A2811D87A
:106A1000FFE7009941F67C30C8F2010050F82100F0
:106A20000199884201D1FFE704E0FFE700980130B7
:106A30000090EAE700980A2801D8FFE70AE042F24E
:106A40005A10C8F2010042F28A11C8F201013C2238
:106A500005F052F8009802B07047000000000000F6
:106A600080B582B00190019800F03EF902B080BD7F
:106A700080B582B00190019800F03EF902B080BD6F
:106A800080B584B00390029101920398FFF7B8FF9C
:106A900000900098052814D8FFE7009941F6A83027
:106AA000C8F2010030F91100013050B1FFE7009940
:106AB00041F6A830C8F2010030F91100FDF7D4F911
:106AC000FFE70299012000FA01F203994869904317
:106AD00048610198007848B9FFE70299012000FA5F
:106AE00001F203994868904348600EE003980299C8
:106AF000019A527800F098F80299012000FA01F208
:106B00000399486810434860FFE703980299019A87
:106B1000927800F01DF904B080BD00000000000074
:106B200082B00190009100981F2801D8FFE70AE089
:106B300041F62260C8F2010041F62C61C8F2010161
:106B4000CF2204F0D9FF019880680099C84000F076
:106B5000010002B07047000086B0059004918DF8E6
:106B60000F20049801900499012000FA01F2059980
:106B7000C8699043C86104980F2804D8FFE70598B6
:106B80000C30029006E00598103002900198103801
:106B90000190FFE79DF80F0001380146009104289D
:106BA0003CD80099DFE801F0030D1A273100019865
:106BB0004100032000FA01F202990868904308603E
:106BC0002DE00298006801994A0003219140884312
:106BD0000121914008430299086020E00298006872
:106BE00001994A00032191408843022191400843C2
:106BF0000299086013E001984100032000FA01F2B5
:106C0000029908681043086009E00499012000FA1D
:106C100001F20599C8691043C86100E0FFE706B0BA
:106C2000704700000000000084B0039002918DF8CE
:106C3000072002981F2801D8FFE70AE041F62260EA
:106C4000C8F2010042F28A11C8F20101752204F073
:106C500053FF9DF8070038B9FFE7029901208840EB
:106C60000399C1F8880006E0029901208840039941
:106C7000C1F88400FFE704B0704700000000000086
:106C800082B00190009100980199C1F8880002B08B
:106C9000704700000000000082B001900091009851
:106CA0000199C1F8880002B07047000000000000A0
:106CB00082B00190009100980199886102B07047FC
:106CC00082B00190009100980199886102B07047EC
:106CD00082B001900091009A01994869104348617F
:106CE00002B070470000000081B0009000988069F9
:106CF00001B070470000000081B0009000988069EA
:106D000001B070470000000082B00190009100982F
:106D10000199C1F8840002B0704700000000000033
:106D200082B00190009100980199C1F8840002B0EE
:106D3000704700000000000080B582B00190009113
:106D400001980099FFF7ECFE02B080BD0000000042
:106D500080B584B0039002918DF8072003980299C2
:106D60009DF80720FFF7F8FE04B080BD000000008A
:106D700080B582B00190009101980099FFF7C4FF9F
:106D800002B080BD0000000080B582B0019000918B
:106D900001980099FFF7C4FF02B080BD0000000019
:106DA00082B001908DF803109DF80300019988606E
:106DB00002B070470000000080B582B001900199D8
:106DC00000200860019800F037F8014641F6C03015
:106DD000C8F2010030F91100FCF7FEFF02B080BDDF
:106DE00080B582B00190019808B1FFE70AE041F652
:106DF0005E60C8F2010042F2F811C8F2010172228D
:106E000004F07AFE0198002100911022FBF7ABFDFF
:106E10000099019A01201070019A5060019A9072B5
:106E2000019A5072019AD172019A1173019A1172EA
:106E30000199487302B080BD82B00190002000909B
:106E4000FFE70098022811D8FFE7009941F6B43017
:106E5000C8F2010050F821000199884201D1FFE7F2
:106E600004E0FFE7009801300090EAE7009802286C
:106E700001D8FFE70AE042F2B010C8F2010042F286
:106E8000F811C8F201012E2204F036FE009802B07B
:106E9000704700000000000082B001908DF80310E0
:106EA000019880689DF80310084002B07047000008
:106EB00080B582B001900091009808B1FFE70AE028
:106EC00042F21D20C8F2010042F2F811C8F201019D
:106ED0003C2204F011FE0198FFF7AEFF014641F697
:106EE000C030C8F2010030F91100FCF7C9FF019968
:106EF00000200860019800F093F8DDF800E09EF8AB
:106F000008109EF809009EF80A209EF80B3000F049
:106F10000100002818BF08209EF80CC09EF80DE064
:106F20006EF341006CF3820063F3041062F34510CA
:106F300061F349200199086001980099097800F0EF
:106F400027F801980099496800F002F802B080BD66
:106F500082B0019000910098411E0020B0EB113FDB
:106F600001D1FFE70AE042F2D210C8F2010042F27A
:106F70003021C8F20101DB2204F0BEFD0198406817
:106F80000099013961F30B000199486002B0704724
:106F900082B001908DF803109DF8030005280FD1F1
:106FA000FFE70198006820F4B8609DF8031001F035
:106FB000070140EA811000F58060019908600CE04B
:106FC0000198006820F4B8609DF8031001F00701F3
:106FD00040EA811001990860FFE702B070470000A5
:106FE00084B003908DF80B1001929DF80B000228DD
:106FF00001DCFFE70BE041F67C50C8F2010041F6EE
:10700000A351C8F201014FF4C67204F075FD9DF85A
:107010000B200198039901EB8201086104B07047CD
:1070200081B000900099086840F400400860FFE7D4
:10703000009800680004002801D5FFE7F8E701B0D8
:10704000704700000000000081B0009000990868BF
:1070500040F00100086001B070470000000000002F
:1070600081B000900099086820F00100086001B02C
:107070007047000000000000FFE7FEE7000000008E
:1070800084B0DDF814C0DDF810C0039002910192C5
:107090000093049820B1FFE7059804990860FFE782
:1070A00004B070470000000084B0DDF814C0DDF8C3
:1070B00010C00390029101920093029800F00F001B
:1070C000059901F0010140EA011003990860019857
:1070D00020B1FFE7009801990860FFE704B070470E
:1070E00083B08DED020ACDED010A00900198009960
:1070F0000860009948694862009890ED022A90ED76
:10710000091A90ED0D0AA1EE020A80ED0D0A9DED1F
:10711000020A009890ED001A30EE410A80ED030A51
:107120000099486B4864009890ED070A90ED111A99
:1071300030EE010A80ED130A009890ED110A90EDEF
:10714000131A80EE010A80ED140A0099486C8865D4
:10715000009890ED0D0A90ED141A90ED162AA1EE0C
:10716000420A80ED0D0A009890ED000A90ED032A86
:1071700090ED141AA1EE020A80ED000A03B07047E8
:1071800086B00190009101990098059104900498AF
:10719000012820DBFFE70498059901F01F0108444E
:1071A000039005980290BFF34F8FFFE702984EF6C9
:1071B0007071CEF2000108600298203002900398AE
:1071C0002038039003980028F0DCFFE7BFF34F8FCF
:1071D000BFF36F8FFFE706B07047000000000000AC
:1071E00080B582B08DED000B40F66800C2F2000061
:1071F00090ED000AB7EEC00A9DED001BB4EE410B06
:10720000F1EE10FA21DAFFE740F2B000C2F200001E
:1072100090ED000AB7EEC00A9FED1D1B30EE010B8A
:10722000B7EEC00B80ED000A40F66800C2F2000025
:1072300090ED000AB7EEC00A9FED171B30EE010B70
:10724000B7EEC00B80ED000AFFE740F66800C2F21F
:10725000000090ED001A9FED160A30EE410AB7EEDD
:10726000C00A9FED0F1B80EE010BB6EE001B30EE47
:10727000010B9FED0D1B20EE010BBCEEC00B10EEC1
:10728000101AB92008F0B0FF02B080BD00BF00BFE7
:10729000FCA9F1D24D62603F7B14AE47E17A943F86
:1072A00000000000008056400000000000407F40C9
:1072B0000000B8420000000080B540F66800C2F24D
:1072C000000090ED000AB5EE400AF1EE10FA21DD63
:1072D000FFE740F2B000C2F2000090ED000AB7EE06
:1072E000C00A9FED251B30EE010BB7EEC00B80ED01
:1072F000000A40F66800C2F2000090ED000AB7EE06
:10730000C00A9FED1F1B30EE010BB7EEC00B80EDE6
:10731000000A0FE040F2B001C2F2000143F2333044
:10732000C3F63370086040F64401C2F20001002049
:107330000860FFE740F66800C2F2000090ED001A16
:107340009FED150A30EE410AB7EEC00A9FED0E1B05
:1073500080EE010BB6EE001B30EE010B9FED0C1B17
:1073600020EE010BBCEEC00B10EE101AB92008F095
:107370003BFF80BD00BF00BFFCA9F1D24D6260BFE2
:107380007B14AE47E17A94BF0000000000805640B5
:107390000000000000407F400000B84200000000F4
:1073A00080B50020C4F23F00012100F025F880BD27
:1073B00080B544F20000C4F23F00022100F01CF846
:1073C00080BD00000000000080B548F20000C4F25B
:1073D0003F00032100F010F880BD00000000000015
:1073E00080B54CF20000C4F23F00042100F004F824
:1073F00080BD00000000000080B582B001900091C7
:1074000001980069C007B0B1FFE741F6B440C2F28D
:107410000000006878B1FFE741F6B440C2F2000016
:1074200002680198009B41F6A041C2F2000151F8A8
:1074300023109047FFE70198D0F81001C007B0B1C2
